:04000000803119280A
:10000800803120007F08F8008B190B1C10288031E4
:10001800EF2080310B1015288B1A0B1D1528813104
:100028001E2178082000FF00090080311B28F001FC
:10003800F101F201F301F401F501F601200080312C
:1000480025288131152180318B170B177203031D69
:100058002A28F2010130F9007908F0070D30700202
:100068000318F0017008031968280130F9007908AD
:10007800F3077303031D6828F3017103031D4A285E
:10008800013022008E068E100E118E11023071067C
:10009800031D542822000E1002308E060E118E11F8
:1000A80003307106031D5E2822000E108E100430E6
:1000B8008E068E1104307106031D682822000E106A
:1000C8008E100E1108308E060130F9007908F407F9
:1000D80003307406031DA228F40105307106031DC0
:1000E8007C28013022008E0602308E060E118E11F9
:1000F80006307106031D872822000E108E1004306A
:100108008E0608308E0607307106031D92280130CE
:1001180022008E068E100E1108308E0608307106E9
:10012800031DA22822000E1002308E068E189F286A
:1001380022000E15A12822000E118E110130F9009F
:100148007908F50705307506031D2A28F5010930D9
:100158007106031DB828013022008E0602308E0673
:1001680004308E0608308E060A307106031DC42836
:1001780022000E1002308E0604308E0608308E06DD
:100188000B307106031D2A28013022008E0602302A
:100198008E060E1108308E062A2822008C013F3068
:1001A80021008C00073023008C00303024008C00A4
:1001B80022008E01303021008E0023008E012400A1
:1001C8008E012100951322009D019E012700121621
:1001D80092168B1508002700121A131EF528131201
:1001E8000800921E0800931E080020008C1A072998
:1001F8007108013EF7007708F1000B307106031D06
:100208000729F101F10A27009312080021001508B7
:10021800C0391738950020009501F6010B118B168F
:1002280008008131252181318031D120813181310E
:100238000A2108000B11F201F20A76082000950045
:0E02480008006A30210099009A019801080010
:020000040001F9
:04000E00E4FFFFDE2E
:00000001FF
